S01E00004652444D5F4B4C32355A44656D6F5F66726565646F6D2E7372656360
S1130000F82F00201104000045360000453600009A
S113001045360000453600004536000045360000F0
S113002045360000453600004536000045360000E0
S113003045360000453600004536000045360000D0
S113004045360000453600004536000045360000C0
S113005045360000453600004536000045360000B0
S113006045360000453600004536000045360000A0
S11300704536000045360000453600004536000090
S11300804536000045360000453600004536000080
S113009045360000453600000F1B000045360000C1
S11300A0790A000045360000BD1D000045360000F9
S11300B04536000045360000453600004536000050
S11300C0FFFFFFFFFFFFFFFFFFFFFFFFFFFFFFFF3C
S11300D0FFFFFFFFFFFFFFFFFFFFFFFFFFFFFFFF2C
S11300E0FFFFFFFFFFFFFFFFFFFFFFFFFFFFFFFF1C
S1130400FFFFFFFFFFFFFFFFFFFFFFFFFEFFFFFFF9
S113041000200021002200230024002500260027BC
S113042062B602F07BF9FEE780B567480068674969
S11304300860002066490870002000F08BFB7C48AF
S11304407C490860182000F0E4FB7B480078802198
S1130450014379480170784800780006FBD4774856
S1130460000A774908707548000C7649087073488B
S1130470000E754908705348007802210143514821
S1130480017072480078012101437048017070487E
S113049000788006800E6E49087067480078402115
S11304A0014365480170A948007801210143A74828
S11304B0017001BD30B500250300C0B2002800D092
S11304C08000801C404CC0B2042545436459614DF2
S11304D02D78ED0718D5604D296060490A703B49B5
S11304E00968C9790902394D2D68AD794D19D2B21F
S11304F0ADB292B2954207D2C0B2022804D13349B8
S113050009688979554A11705549C0B2095C534A42
S11305101278914211D25249C0B2095C4F4A127802
S11305204F4DC0B22D5C521B4C4D2A70494A127873
S1130530FE251540474A15700AE04849097800220B
S1130540464D2A70434A127801251543414A1570D5
S1130550C9B23A4AC0B2082545435219518009E04C
S11305603D4A1268127822703B4A1268521C3A4D76
S11305702A60641C0A00511ED2B2002AF0D19149AB
S1130580097801229A4011420DD088212B4AC0B229
S11305900824604311548B48007801219940884312
S11305A0884908700CE0C821244AC0B2082460437A
S11305B01154844800780121994001438148017015
S11305C030BD00008020074028F4FF1FA4F9FF1F5E
S11305D05AFAFF1F05209E49087005209D4908709E
S11305E009209D49087001209C49087001209C49FC
S11305F0087001209B49087000209B490870002066
S11306000E49488699480D49486300209849087066
S11306100020984908809848084948658020B049D6
S11306200870FF20AF490880AF4804494866704706
S1130630790A0000CCF0FF1F0C21074000F6FF1FD1
S11306409C200740B0200740B42007408420074086
S11306500021074053FAFF1FA0F9FF1F54FAFF1FA0
S11306602038000080B5AE4800684078002860D08B
S1130670052806D006280DD0082854D0092835D0DE
S113068060E0002200210020FFF714FF0320B1499D
S1130690087059E0A2480068C078012804D022D329
S11306A003280DD006D31EE01222AB490020FFF729
S11306B001FF1AE04322B2490020FFF7FBFE14E0D9
S11306C0B048974909688978042251434058027810
S11306D0AC48934909688978042359434158002058
S11306E0FFF7E8FE01E000F01DF92DE08C480068FA
S11306F0C0788B49096889784018A34908708848EC
S11307000068C0788649096889784018002809D0AB
S1130710FFF760FF002200210020FFF7CBFE01203D
S11307208C49087010E0012297490020FFF7C2FEAF
S11307300AE00020CC4908800222CB490020FFF7C0
S1130740B9FE01E000F0EEF801BD0000942007407E
S113075080B51C480078FE2101401A480170704899
S113076000680078C006C00EC0B2002803D002287A
S113077019D00BD31DE06A4800680078C00601D187
S1130780FFF770FF8820B949087014E000F089FA77
S1130790C0B2002803D18820B449087002E0C82000
S11307A0B249087007E000F00FF88820AF490870DC
S11307B001E000F0B7F8AE480078DF210140AC4812
S11307C0017001BD55FAFF1F80B555480068407897
S11307D0002804D0012819D0032827D036E0C648C1
S11307E0007801214E4A126852799140084204D09F
S11307F0802040006946088002E0002069460880A5
S1130800022269460020FFF755FE1FE0BA4800782F
S11308100121434A1268527991408843B6490870CD
S1130820002200210020FFF745FE0FE0B2480078C7
S113083001213B4A1268527991400143AE4801704C
S1130840002200210020FFF735FEFFE701BD000074
S1130850C4200740C8200740CC200740D0200740D0
S1130860D4200740D820074030F6FF1F60F8FF1F50
S113087050F6FF1F52F6FF1FE0F8FF1F10B57D482A
S11308800178082001407B480078C0B20009C0B25A
S1130890002811D0C9B2002921D10021734AC0B265
S11308A0830008246343D154944909780122824087
S11308B00A439248027012E0C9B2002902D000F043
S11308C015F80CE069480078C0B280080007000FF2
S11308D00D2802D1FFF73CFF01E000F030F810BD15
S11308E060F6FF1F62F6FF1F20F9FF1F80B519484D
S11308F0007803280DD10A48006880788049087080
S11309000420144908707F480078012101437D4880
S11309100170002200210020FFF7CCFD01BD000082
S1130920A4F9FF1F7848007802210143764801703A
S113093088204E49087020204C49488070476F48F1
S11309400078012101436D48017088206F490870C7
S1130950704700005AFAFF1F4C37000000B56A4880
S11309600078800705D568480078FD210140664875
S1130970017067480078802101436548017000BD1B
S1130980E830000068F4FF1F57FAFF1FFF205D499D
S1130990087000205F49087000205F49087000203B
S11309A05E49087000205E49087000205D490870A7
S11309B000205D49087000205C49087000205C49F3
S11309C008702020294948805A4828494860C8208E
S11309D02649087020202549488157482349C86082
S11309E0C8202249087220202049488253481F49C0
S11309F0486188201D49087420201C4948835048B8
S1130A001A49C8618820194908760D203E490870A2
S1130A10FF204C490870FF203D49087000203849E8
S1130A2008707E204849087048480078082101432E
S1130A304648017045480078042101434348017049
S1130A404248007802210143404801703F48007841
S1130A50012101433D4801703C4800788021014355
S1130A603A480170704700004AFAFF1F00F6FF1F62
S1130A70942007409020074080B525480078C0079F
S1130A8002D5FFF783FF35E021480078400702D5FF
S1130A9004201F4908701E480078000601D5FFF79E
S1130AA05DFF1B48007800070DD529480078022116
S1130AB0014327480170FFF7E1FE1548007808213B
S1130AC001431348017012480078C00605D5104848
S1130AD00078102101430E4801700D48007880070A
S1130AE008D50B4800780221014309480170FF2012
S1130AF01449087001BD000059FAFF1F52FAFF1F84
S1130B009820074053FAFF1FC020074000F6FF1F3C
S1130B108020074055FAFF1F56FAFF1FC4200740E4
S1130B20C8200740CC200740D0200740D4200740ED
S1130B30D8200740A0F7FF1FC0F7FF1FE0F7FF1FF3
S1130B4000F8FF1F882007408C20074084200740BE
S1130B509420074080B5C0B2002803D0022819D0E1
S1130B6008D328E018480068A021C90201431648A8
S1130B70016020E000F034F8134800681349014094
S1130B8011480160104800688021C90201430E48E1
S1130B90016010E00C4800680D4901400A480160FA
S1130BA00C4800688021890001430A4801608020C4
S1130BB0800009490860094800688021C90201438E
S1130BC00648016001BD000004800440FFFFFEFFF1
S1130BD0FFFFFBFF3880044014900440348004403D
S1130BE0704730B4012100220368001D002B0BD094
S1130BF00468001D0C4202D04D466D1E641922602B
S1130C00241D1B1FF0D0FAE730BC70471049086060
S1130C10704770B50400212C03DB0E4800F0E2FAA3
S1130C2015E00D48056801262000202100F002FB94
S1130C308E402E43084806600848056801262000B7
S1130C40202100F0F7FA8E402E430448066070BD60
S1130C5008ED00E09432000080E200E000E100E0F2
S1130C6080B500202A490870FFF7DEFB2948006898
S1130C70C02189000143274801609620800100F0CB
S1130C8055F82549086000202349087100202249AD
S1130C9048710820204988718021204800F024FBF5
S1130CA001BD10B500241F48006840780A2808D008
S1130CB0202812D021280AD0222813D0AA2816D0FE
S1130CC022E0012218490020FFF7F4FB1CE0072270
S1130CD011490020FFF7EEFB16E020200C490870B4
S1130CE0012411E022200A49087000240CE080212C
S1130CF00A4800F0F9FA0A480078802101430848BC
S1130D000170FF20054908702000C0B210BD00002A
S1130D105BFAFF1F1CB00440A8F9FF1FB0F9FF1FC6
S1130D2052FAFF1FA4F9FF1F58FAFF1F0100090E12
S1130D300200120AFF231B021340C918FF221202E9
S1130D4002401202891800060918080070470000C2
S1130D5010B50C001168012902D0022904D009E061
S1130D60C0B25168884705E0916808709068401CDB
S1130D709060FFE72068401C206010BDF0B51C00A7
S1130D8000260500002028706D1C002A1CD00F6866
S1130D90002F09D130202870761C3000F0BD30328D
S1130DA00F002A706D1C761C002FF6D0380021002D
S1130DB000F040FA0100080060433A1A002AEED518
S1130DC0D04302003132EBE70F68002F08D1302006
S1130DD02870761CE1E73731070029706D1C761CFA
S1130DE0002FDAD03800210000F027FA0100614317
S1130DF0791A0A29EFD23031EEE7F8B50E00150062
S1130E001F00040005E03A0029003020FFF7A0FF8E
S1130E10641CB442F7DBF1BDF8B50E0015001F00E9
S1130E20040005E03A0029002020FFF791FF641C2C
S1130E30B442F7DBF1BDF1B590B01400002000908E
S1130E400D0004E0109A6946FFF782FF6D1C2878B4
S1130E50002800D1C3E1252811D00A2804D0109A13
S1130E606946FFF775FF09E0109A69460D20FFF700
S1130E706FFF109A69460A20FFF76AFFE6E700272A
S1130E80002102E038000127074300291FD16D1C0F
S1130E90287820280CD0232812D02B2804D02D28E1
S1130EA0F0D0302808D00FE0380002270743ECE7E1
S1130EB0380004270743E8E7380008270743E4E736
S1130EC0380010270743E0E76D1E0121DDE700200D
S1130ED00290002105E0029A0A235A431018303880
S1130EE00290002908D16D1C28780200303A092AA2
S1130EF0F1D96D1E0121F4E76D1C28782E280BD141
S1130F000021FFE7002908D16D1C28783038092812
S1130F10F8D96D1E0121F5E76D1E6D1C28784C284B
S1130F2006D0682802D06C2801D002E002E001E07B
S1130F3000E06D1E6D1C28780100582971D06229CB
S1130F4000D1CAE0632900D113E1642913D06929CF
S1130F5011D06E2900D13DE16F2900D1B2E0702992
S1130F6000D1C5E0732900D10BE1752900D1CAE095
S1130F70782956D066E72068241D06900A230122AA
S1130F8006A907A8FFF7FAFE060007A8801905902E
S1130F900698002803D52D200190761C0DE0B80793
S1130FA003D52B200190761C07E0780703D5202079
S1130FB00190761C01E00020019000200490380785
S1130FC011D50198002804D0109A69460198FFF7BA
S1130FD0BFFE01200490109B6A4602993000FFF77F
S1130FE00CFF029E11E0F8070FD4109B6A46029989
S1130FF03000FFF711FF0198002804D0109A6946C9
S11310000198FFF7A5FE012004900498002807D159
S11310100198002804D0109A69460198FFF798FEB9
S11310209AE02068241D03901023002203A907A836
S1131030FFF7A4FE060007A880190590002004907D
S1131040380715D5F8060BD5109A69463020FFF7F6
S11310507FFE109A69467820FFF77AFE01200490FB
S1131060109B6A4602993000FFF7C7FE029E18E003
S1131070F80716D4F80600D5B61C109B6A460299E8
S11310803000FFF7C9FEF8060BD5109A69463020E8
S1131090FFF75EFE109A69467820FFF759FE01209B
S11310A00490F8060DD5049800280AD1109A6946D0
S11310B03020FFF74DFE109A69467820FFF748FE6E
S11310C0B61C49E02068241D03900823002203A9CC
S11310D007A8FFF753FE06001FE02068241D0390B5
S11310E00223002203A907A8FFF748FE060014E024
S11310F02068241D03901023002203A907A8FFF7EA
S11311003DFE060009E02068241D03900A23002206
S113111003A907A8FFF732FE060007A88019059067
S1131120380707D5109B6A4602993000FFF765FE21
S1131130029E11E0F8070FD4109B6A460299300012
S1131140FFF76AFE08E0109A694605980078FFF7F1
S1131150FFFD0598401E0590059800780028F2D1FF
S1131160F80705D5109B6A4602993000FFF754FE34
S11311706CE62068241DC0B2109A6946FFF7E8FDAA
S113118064E62068241D01900198002821D001986C
S113119000F0C8F80600F8070FD4109B6A460299BD
S11311A03000FFF739FE08E0109A6946019800788C
S11311B0FFF7CEFD0198401C0190019800780028AB
S11311C0F2D1F80705D5109B6A4602993000FFF763
S11311D023FE3BE62068241D0099016036E6009852
S11311E011B0F0BD0EB400B584B0012100910549E1
S11311F0019105AA01006846FFF71DFE049908B095
S1131200084700009D370000F446002804D44942F2
S113121000F013F8404260474042002905D45FD0F3
S113122000F00BF8404249426047494200F005F89B
S11312304942604703460B43E6D40022030A8B422B
S11312400BD203098B4219D243088B422ED2411A86
S113125000D20146524110467047FF2209023FD096
S113126012068B4205D3121209028B4201D31212C9
S1131270090203098B4219D300E0090AC3098B420E
S113128001D3CB01C01A524183098B4201D38B0194
S1131290C01A524143098B4201D34B01C01A524137
S11312A003098B4201D30B01C01A5241C3088B427C
S11312B001D3CB00C01A524183088B4201D38B0067
S11312C0C01A524143088B4201D34B00C01A524109
S11312D0884200D3401A5241CFD20146104670478B
S11312E008B500F02FF808BDC9B24218521E074BCA
S11312F01A60074A1060074A1170074908600749D5
S11313000860002006490870704700001CF7FF1FA2
S113131018F7FF1F4EFAFF1F20F7FF1F24F7FF1FC8
S11313204FFAFF1F00B501000020002902D1002060
S113133006E0401C0A001100491C1278002AF8D16A
S113134000BD00007047000080B58548006880211A
S113135049040143824801608248006880210906EB
S1131360014380480160FFF77BFCA248007810210C
S11313700143A048017001BD80B5002000F03DFA92
S1131380000700D187E0012000F037FA0002774916
S11313900880022000F031FA74490988C0B2014380
S11313A07248018071480021405E00B280106F498C
S11313B00880032000F021FA00028F4908800420ED
S11313C000F01BFA8C490988C0B201438A480180A5
S11313D089480021405E00B28010874908800520BA
S11313E000F00BFA000285490880062000F005FA97
S11313F082490988C0B20143804801807F480021A6
S1131400405E00B280107D490880012000F0F5F9AB
S113141000027B490880022000F0EFF9784909882E
S1131420C0B201437648018075480021405E00B295
S1131430001273490880032000F0DFF900027149AB
S11314400880042000F0D9F96E490988C0B201432C
S11314506C4801806B480021405E00B2001269496B
S11314600880052000F0C9F90002A349088006207D
S113147000F0C3F9A0490988C0B201439E48018025
S11314809D480021405E00B200129B49088000F094
S1131490CBF900F08EFA01BD10B55B480088002836
S11314A004D1FFF769FF0A20574908809348006870
S11314B015283BD35548FFF795FE9148006800F086
S11314C0BDFAFF21C431884201DB002006E0E1249B
S11314D064008B48006800F0B1FA201A894908605A
S11314E08948006800F0AAFAFF21C431884201DB70
S11314F0002006E0E12464008348006800F09EFABE
S1131500201AA34908608148006800F097FAFF2177
S1131510C431884201DB002006E0E12464007B48FA
S1131520006800F08BFA201A794908607348006853
S1131530142813D20C48007800280FD00A480078E9
S11315400A21484372490860074800786D490860D9
S1131550054800780A2148438D49086010BD000001
S1131560047004400070044051FAFF1F30FAFF1F5A
S113157088480068A02149010143864801608648E3
S11315800068A021C90401438348016083480068BE
S113159080214904014381480160C02080008049C2
S11315A00860C02080007F4908608020C0007E4918
S11315B00860FA2080007D49086024207C49086086
S11315C0192053490860FA2080007A4908602420D1
S11315D07949086019204B4908602420774908603C
S11315E019206B490860082075490860082075496E
S11315F0086070470821074032FAFF1F34FAFF1FC2
S113160036FAFF1F38FAFF1F42FAFF1F7834000032
S113161000B56D48008800286CD16C480078401CE7
S11316206A490870FA2040006749088067480078D2
S113163001280AD058D303281DD011D3052831D04E
S113164024D3072846D039D34EE0962040002D49B4
S1131650086000204E49086000202D49086049E0D8
S1131660002028490860962040004949086000206D
S1131670274908603EE000202249086000204449D0
S11316800860962040002249086033E0962040001C
S11316901C490860962040003D49086000201C4910
S11316A0086027E000201749086096204000384968
S11316B0086096204000164908601BE09620400010
S11316C01049086000203249086096204000104903
S11316D008600FE0C8200B490860FA202C49086014
S11316E0FA200B49086005E00020384908703848A2
S11316F03849086000BD00003AFAFF1F8CF6FF1F4E
S11317009CF6FF1F10A00340A0F6FF1F98F6FF1FD2
S11317101880034030B585B00024002500F092F90C
S113172000F0D4F900F0CDFAFFF722FFFFF70CFE2A
S1131730294828490860294800F0A6FB00F0BEFCAF
S113174000F0CEFD02236A4600214C2000F04CFD3F
S1131750684641782248FFF745FD6846407880286E
S1131760F0D105236A4600214C2000F03DFD002401
S113177006E06846025D21001A48FFF733FD641C49
S1131780052CF6DB00F077FC00F052FDFAE70000D0
S113179018A00340388004403C8004400480044086
S11317A048A004404CA0044004C004400880034006
S11317B01480034008A003400CA0034014A003407D
S11317C000A00340008003403EFAFF1F4DFAFF1FB4
S11317D0991400003CF7FF1F11160000007006402A
S11317E0E4350000FC35000000B5002000E0401C9A
S11317F0C82149008842FADB00BD80B5094800F0E1
S113180009FB9821074800F003FB064800F014FB8D
S1131810044800F01AFB034800F005FBFFF7E4FF5F
S1131820ECE700000070064070B57048008840B2D4
S11318306F4900F083FD6F4908606F48008840B22B
S11318406E4900F07BFD6E4908606E48008840B226
S11318506D4900F073FD6D49086066480568654888
S1131860006845436648046865480068444328198D
S113187000F0A8FD6649086061480068002805D5A5
S11318805F48006841426348016003E05C480068C7
S1131890604908605F480068C0015D490968FFF756
S11318A0CCFC5D4908605C480068802802D37F2036
S11318B05949086059485849096804225143405815
S11318C0574908604E480068012804DB5448006802
S11318D04142534801604D4806684C4800684643FD
S11318E0A81900F06FFD4F490860424800680028BD
S11318F005D54048006841424648016003E03D4840
S113190000684449086043480068C00145490968C3
S1131910FFF793FC404908603F480068802802D3E1
S11319207F203D4908603D483B49096804225143F2
S113193040583D4908602F480068012804DB3A48B4
S11319400068414238480160A01900F03BFD374966
S113195008602B480068002805D5294800684142E2
S11319602C48016003E0264800682A490860294899
S11319700068C0012D490968FFF75FFC264908602B
S113198025480068802802D37F2023490860234823
S113199021490968042251434058254908601848E0
S11319A00068012804DB22480068414220480160A5
S11319B070BD00B5164800682D280FD2194800687C
S11319C02D280BD2194800682D2807D21948008801
S11319D0002803D101201849087005E000201649A9
S11319E008700A201349088000BD000036FAFF1F62
S11319F0A4F6FF1F80F6FF1F38FAFF1FC8F6FF1F6B
S1131A0084F6FF1F3AFAFF1FECF6FF1F88F6FF1F4C
S1131A108CF6FF1F10F7FF1F14F7FF1F7C2E00002A
S1131A2098F6FF1F90F6FF1F9CF6FF1F94F6FF1F0A
S1131A30A0F6FF1F40FAFF1F4CFAFF1F002800D535
S1131A4040427047A02040001949086019480068C6
S1131A508021C902014317480160174800688021AA
S1131A60C902014314480160A020400013490860E2
S1131A70104800688021090301430E4801600E48A4
S1131A8000688021090301430B480160A020400045
S1131A900B4908600B4800680221014309480160B2
S1131AA009480068022101430748016070470000AB
S1131AB048A0044044F00F4054F00F404CA00440B0
S1131AC004C00440C4F00F40D4F00F4080B5324845
S1131AD000688021090401432F4801601620FFF7A4
S1131AE098F800202D49086000202D4908602D48F1
S1131AF02D49086002202A49086001202B4908600A
S1131B0027480068012101432548016001BD00B553
S1131B1001202649086026480078002804D024487B
S1131B200078401E2249087022480088002805D009
S1131B3020480088401E1F49088007E07D201C497A
S1131B4008701D480088401C1B4908801B480088F9
S1131B50002804D019480088401E184908801848F5
S1131B600088002804D016480088401E14490880C4
S1131B7014480088002804D012480088401E1149E7
S1131B80088011480088002804D00F480088401EAF
S1131B900D49088000BD00003C80044000700340F3
S1131BA01871034080BB0000107103401C71034096
S1131BB010F4FF1F42FAFF1F3CFAFF1F3EFAFF1FFB
S1131BC044FAFF1F46FAFF1F48FAFF1F10B5714879
S1131BD00068042101436F4801606E480068802159
S1131BE088436C4908606B480068C00601D5012031
S1131BF000E000206749096810229143654A11609A
S1131C006449096840229143624A11606149096844
S1131C1080220A435F490A6000211EE05E4AC9B27D
S1131C20525C12075D4B1A605C4A12688023DB0326
S1131C3013435A4A1360574A12685207FBD5554A50
S1131C40126804231343534A1360544A1268544BD2
S1131C50C9B202244C431A53491C524A1278C9B2DD
S1131C609142DBD34B49096880229143494A116070
S1131C704849096840220A4346490A60C0B200281C
S1131C8006D044480068102101434248016005E041
S1131C9040480068102188433E4908603D48006878
S1131CA0802101433B4801603B48007800073B49E1
S1131CB008603A4800688021C9030143374801603D
S1131CC010BD80B5384800682021014336480160C2
S1131CD00020364908600020354908601A20FEF7C4
S1131CE098FF2C480068334901432A480160294879
S1131CF000688021014327480160FFF767FF01BDA9
S1131D0000B5264800682C49334A127802235A4306
S1131D10885229483049097802225143405A2049BF
S1131D202D4A127802235A43895A401A00B20028D5
S1131D3007D500202949284A127802235A43885299
S1131D4005E02649244A127802235A43885215484A
S1131D50007802281DDB2048007812490978491EC2
S1131D60884205DA1C480078401C1B49087002E0D0
S1131D70002019490870084817490978405C000791
S1131D8006490860054800688021C90301430348E7
S1131D90016000BD0050044014F4FF1F04500440CF
S1131DA060F7FF1F11F4FF1F3880044040A0044077
S1131DB044A00440608B871040F7FF1F80B50120CA
S1131DC00749087007480068042101430548016079
S1131DD0FFF796FF01BD000050FAFF1F80F7FF1FB9
S1131DE024F4FF1F00500440817810220A438270BB
S1131DF070478178EF220A40827070478178DF2231
S1131E000A4082707047817820220A4382707047AA
S1131E100171704710B504002000FFF7F4FF2000A3
S1131E20FFF7E2FF10BD10B504002000FFF7E6FF46
S1131E302000FFF7DEFF10BD00B5C1788907FCD58F
S1131E40C17802220A43C27000BD00B5C078C00741
S1131E5001D4012000E0002000BD00B501007D4850
S1131E60CA78920702D4401E0128F9DACA780223FC
S1131E701343CB7000BD000000B5012001E000BF9A
S1131E80401C3228FBDB00BD00B57349884206D1F3
S1131E906D49096840220A436B490A6008E06F49AA
S1131EA0884205D16849096880220A4366490A6064
S1131EB080218900654A116080218900644A11608B
S1131EC000218170402181710221C1700021417182
S1131ED0082101721F214170817880220A43827097
S1131EE000BD00B50023D2B2002A01D1002200E0D7
S1131EF001224B00190013000B43817810220A437E
S1131F008270817820220A438270037100BDF7B584
S1131F1004001F000026089D002D01D0002F02D1CF
S1131F200020C0434FE00022684601792000FFF7FB
S1131F30D8FF2000FFF791FF6846007A2071200047
S1131F40FFF78BFFA07804210143A1706846007954
S1131F5040000121014321712000FFF77EFFA0789A
S1131F60EF210140A1702079012D04D1A07808212E
S1131F700143A17013E0A078F7210140A1700EE0A5
S1131F80A078DF210140A170A078EF210140A17069
S1131F90A078F7210140A170207938707F1C2800B7
S1131FA0451E00280BD02000FFF757FF002DE7D077
S1131FB0012DF1D1A07808210143A170ECE700269E
S1131FC0FFF75AFF3000FEBDF4B505001F000026E0
S1131FD0069C002C01D0002F02D10020C04332E027
S1131FE00022C9B22800FFF77CFF2800FFF735FF65
S1131FF0E878C00705D50026F6431948FFF7F2F83C
S113200016E06846007828712800FFF726FF2000B4
S1132010441E00280BD0387828717F1C2800FFF755
S11320201CFFE878C007F2D50026F64300E000263E
S1132030A878DF210140A970A878EF210140A97098
S1132040FFF71AFF3000F2BD3480044004B00440AE
S113205008B0044040420F00006006400070064093
S11320601035000000B5002000E0401CC8214900E4
S11320708842FADB00BD00B585B000F05EF80223AB
S11320806A4600214C2000F0AFF8FFF7EBFF6846EA
S113209040788028F3D110236A4600214C2000F0B8
S11320A0A3F8684680798021490048436946C97984
S11320B041189248FFF796F805B000BD10B586B0F8
S11320C000F047F800F054F800F07FF800F05FF8F3
S11320D000F06CF8FFF7C6FF00F0F3F800F02DF8FD
S11320E002236A4600214C2000F07EF868464178BD
S11320F08348FFF777F8684640788028F0D11023AA
S11321006A4600214C2000F06FF8002406E068467F
S1132110025D21007B48FFF765F8641C102CF6DB98
S1132120684680798021490048436946C979411845
S11321307248FFF757F806B010BD80B5684672497B
S11321400A68026004236A4600214C2000F058F813
S113215001BD00B585B068466C49142200F04CF905
S113216014236A4600214C2000F04AF805B000BD53
S113217000B583B0684666490CC90CC008390838F4
S113218005236A4600214C2000F03AF807BD00B54B
S113219083B068465F490CC90CC008390838052368
S11321A06A4600214C2000F02BF807BD00B583B02F
S11321B0684659490CC90CC00839083805236A46D1
S11321C000214C2000F01CF807BD00B583B0684620
S11321D052490CC90CC00839083805236A46002145
S11321E04C2000F00DF807BD80B5DBB2009313005E
S11321F00A00D2B20100C9B24948FFF788FE01BD06
S113220080B5DBB2009313000A00D2B20100C9B258
S11322104348FFF7D9FE01BD80B5684641490A68C5
S1132220026004236A4600214C20FFF7E9FF01BD48
S113223030B585B0FFF7F0FF02236A4600214C2039
S1132240FFF7D2FFFFF70EFF684640788028F3D1EE
S11322500A236A4600214C20FFF7C6FF002406E04B
S11322606846025D21002748FEF7BCFF641C0A2C67
S1132270F6DB68460079802149004843694649797C
S11322804118684680798022520050436A46D279C8
S113229084186846007A8022520050436A46527A73
S11322A0851809B22048FEF79DFF24B221001F487B
S11322B0FEF798FF2DB229001D48FEF793FF05B0E5
S11322C030BD00B583B068461A490CC90CC0083942
S11322D0083805236A4600214C20FFF791FF07BD0B
S11322E080B5684614490A68026004236A460021DE
S11322F04C20FFF785FF01BD00000000B03700004F
S1132300C0370000D0370000183900005C360000E8
S1132310A8380000B0380000B8380000C038000009
S1132320007006401C390000C8380000D038000096
S1132330D8380000E03800002039000010B588B01B
S11323400A78521C0A700A785207520F0A700A78E7
S113235004235A438A185060002208E004205043A2
S1132360081840686B46042454431851521C082A28
S1132370F4DB002000221EE0694604235343C918FD
S113238049686B46042454431B59994212DA68463F
S1132390042151434058694604235343C9184968EA
S11323A06B46042454431951694604235343C91802
S11323B048600120521C072ADEDB0028D9D103988B
S11323C008B010BDF0B504000027FA26B600FA25BF
S11323D0AD00350020003100FEF72FFF3018060055
S11323E07608380007007F1CC0B2072801DAB5421E
S11323F0EFD13000F0BD000070B4103A03D378C9B7
S1132400103A78C0FBD2530701D318C918C001D5BC
S113241008C908C0D20704D30B880380891C801C18
S1132420002A01D50B78037070BC7047F4B5040022
S11324300F001D00A6480078C0B280088007800FF6
S1132440002807D1A2480078C00603D5A048007828
S1132450800601D5012039E19E48844201DB212018
S113246034E168460078002806D09B48201A9B492E
S1132470884201D3222029E1FFB2002F00D0012796
S11324806DB22800401E192801D341201EE169467F
S113249018200E5676B2300018381B2801D342207B
S11324A014E120006DB22900FEF7C4FE8C49401AE5
S11324B08C49884201D3432008E120006DB22900F1
S11324C0FEF7B8FE76B270438749401A87498842BE
S11324D001D34520FAE0864801780800C321014071
S11324E0844884420ADAFFB2F8006A4612789200FD
S11324F00243102010430843010009E00800FFB222
S1132500F9006A46127892000A43202111430143DC
S1132510774801707848844201DA002014E0774853
S1132520844201DA01200FE07548844201DA022076
S11325300AE07448844201DA032005E072488442C8
S113254001DA042000E00520704909788907890F21
S11325500B00C000382202408021114319436B480C
S1132560017068460078002810D0002000E0401C6C
S113257000B26749884203DA554909788907F6D5D4
S113258053480078800701D423209FE0002000E016
S1132590401C00B2FA21C900884203DA4C49097888
S11325A0C906F5D44A480078C00601D511208DE04B
S11325B0002000E0401C00B2FA21C900884207DA7A
S11325C043490978C9B289088907890F0229F1D1D9
S11325D03F480078C0B280088007800F022801D0ED
S11325E01A2073E04B4800782021014349480170C8
S11325F0494801780800E02101400A00681EC1062C
S1132600C90E114344480170424801780800E02192
S113261001400A00183EF006C00E40210143114358
S11326203C480170002000E0401C00B2FA21C900BF
S1132630884203DA264909788906F5D524480078C2
S1132640800601D4162041E0002000E0401C00B2C6
S1132650FA210901884203DA1D4909784906F5D5AA
S11326601B480078400601D444202FE02A48007813
S1132670C106C90E491C27480078C506ED0E183559
S1132680224800788006800E204A1070002000E066
S1132690401C00B2FA22D200904207DA0C4A1278A7
S11326A0D2B292089207920F032AF1D10848007817
S11326B0C0B280088007800F032801D01B2005E0EA
S11326C02000C9B2FEF7B6FDEDB26843F2BD0000CA
S11326D00640064081F0FA02C0C62D004181BA01CD
S11326E080841E0081841E00006CDC0201751903C5
S11326F00140064001127A00D1121300A1252600E0
S1132700414B4C0081969800012D31010040064058
S1132710204E0000054006400440064080B50020DD
S11327207B49086000F044F900F094F97948FEF719
S113273059FD00F019FA00F003F8FEF7EBFFFEE78D
S113274080B575480068000F4007400F002806D088
S113275002280CD007D3042811D00CD313E06F48FF
S1132760FEF740FD12E06E48FEF73CFD0EE06D48BA
S1132770FEF738FD0AE06C48FEF734FD06E06B48CE
S1132780FEF730FD02E06A48FEF72CFD624800685F
S1132790000E4007400F042802D0052804D007E0AB
S11327A064A0FEF71FFD06E063A0FEF71BFD02E038
S11327B06248FEF717FD584800680007000F00281C
S11327C00CD001280ED0022810D0042812D00528DD
S11327D014D0062815D0082816D019E05848FEF75A
S11327E001FD18E05748FEF7FDFC14E05648FEF7DB
S11327F0F9FC10E05548FEF7F5FC0CE05448FEF7F0
S1132800F1FC5448FEF7EEFC5348FEF7EBFC02E003
S11328105248FEF7E7FC40480068000D4007400FAF
S1132820012803D14E48FEF7DDFC02E04D48FEF7D7
S1132830D9FC39480068000C4007400F00280BD031
S1132840022811D00CD3042816D011D306281BD08B
S113285016D307281CD01FE04348FEF7C3FC1EE034
S11328604248FEF7BFFC1AE04148FEF7BBFC16E005
S11328704048FEF7B7FC12E03F48FEF7B3FC0EE019
S11328803E48FEF7AFFC0AE03D48FEF7ABFC06E02D
S11328903C48FEF7A7FC02E03B48FEF7A3FC0F21EF
S11328A089B23A48FEF79EFC39480068000E0007DA
S11328B0000F00280CD001280ED0032810D00528C2
S11328C012D0072814D0092816D00F2818D01BE0DE
S11328D03048FEF787FC1AE02F48FEF783FC16E029
S11328E02E48FEF77FFC12E02D48FEF77BFC0EE03D
S11328F02C48FEF777FC0AE02B48FEF773FC06E051
S11329002848FEF76FFC02E02848FEF76BFC01BD87
S113291000810440E838000024800440F0380000BE
S1132920F8380000003900000839000010390000B0
S11329300034000034000000350000002C33000097
S1132940F0370000003800006C38000078380000D0
S1132950843800009038000010380000583300001C
S1132960283400008433000098360000AC360000A0
S1132970C0360000D4360000E8360000FC36000003
S1132980103700002437000080350000383700007D
S11329904C8004402C31000068310000A431000058
S11329A0E03100001C32000058320000F034000016
S11329B080B51E481E4988420ED0002008E01C49FC
S11329C0042242438958194A04234343D150401CEA
S11329D0822149008842F2D31448FEF717F91549B9
S11329E0154A1648801A03E013780B70521C491CD0
S11329F00300581E002BF7D111491248401A02E077
S1132A0000220A70491C0200501E002AF8D10E4907
S1132A100E4A0F48801A03E013780B70521C491CAD
S1132A200300581E002BF7D101BD00BF00F0FF1FAB
S1132A300000000010F4FF1F7C300000E8300000AC
S1132A4000F6FF1F5CFAFF1F5CFAFF1F1004000072
S1132A501004000000B583B035480068F8218901EE
S1132A6001433348016033480078000705D53148F5
S1132A700078082101432F4801702F482F4908602E
S1132A8001200190302000900423012200212C48D1
S1132A90FFF7CCFC2B4908602A480068FF2800DCBB
S1132AA0FEE7294800688021490201432648016065
S1132AB0244800680221FEF7BDFBFA218900FEF7D5
S1132AC0B9FB224908601F480068FA218900FEF713
S1132AD0B1FB1F4908601E48006818490968090FBE
S1132AE0491CFEF7AAFB1B4908601A4800681349F1
S1132AF00968090C4907490F491CFEF79EFB164952
S1132B0008608020800015490860802080001449F6
S1132B1008600D4800688021C90401430A48016027
S1132B209622D201094801680E4800F0F9F807BD61
S1132B303880044002D00740000001104480044063
S1132B4000127A0028F7FF1F0480044038F7FF1FA3
S1132B502CF7FF1F30F7FF1F34F7FF1F04900440CA
S1132B600890044000A0064080B5574800788006CD
S1132B7002D55648FEF736FB53480078000702D5C5
S1132B805348FEF72FFB50480078400702D55148C0
S1132B90FEF728FB4C480078800702D54E48FEF724
S1132BA021FB4E480078000602D54D48FEF71AFB7B
S1132BB04A480078400602D54A48FEF713FB4748C6
S1132BC00078800602D54848FEF70CFB434800789D
S1132BD0400702D54548FEF705FB4048007800074A
S1132BE002D54348FEF7FEFA3C480078800702D538
S1132BF04048FEF7F7FA39480078C0074DD53E48FB
S1132C00FEF7F0FA3D480078C0B24007400F0328B1
S1132C1002D13B48FEF7E6FA38480078C0B24007D4
S1132C20400F042806D137480078400702D13648BF
S1132C30FEF7D8FA31480078C0B24007400F0428A4
S1132C4009D130480078C0B24007400F012802D1B2
S1132C502E48FEF7C7FA29480078C0B24007400F53
S1132C60042809D127480078C0B24007400F022841
S1132C7002D12748FEF7B6FA20480078C0B24007D0
S1132C80400F042809D11F480078C0B24007400F04
S1132C90032802D11F48FEF7A5FA10480078C0B2F5
S1132CA0002810D108480078C0B200280BD10B4886
S1132CB00178C9B21848FEF795FA03480178C9B2F9
S1132CC01648FEF78FFA01BD01F007409C3400005E
S1132CD0E0370000703600002C35000000F007409B
S1132CE084360000143600002C360000D034000076
S1132CF04835000064350000CC32000001E0074094
S1132D003038000002E007403C380000483800003A
S1132D105438000060380000B0330000D83300009D
S1132D20F6B500200026002700220023474C256822
S1132D308024E4002C43454D2C60454C2578F32435
S1132D402C40434D2C700C00203C424DAC4208D327
S1132D500021414802681000404A02403E48026097
S1132D60FEE7019CFA20800041430091042500986D
S1132D702100EDB26943FEF760FA01000098EDB25C
S1132D806943FEF75AFA844201D2061B00E0261A70
S1132D90EDB22F00052506E0231A9E4202D31E0041
S1132DA0EDB22F006D1CEDB2212D0FDA0098210039
S1132DB0EDB26943FEF741FA01000098EDB26943B0
S1132DC0FEF73BFA8442E7D2031BE6E720006421C6
S1132DD0FEF733FA03214843864235D23800001FF8
S1132DE0052805D21E480078022101431C480170C1
S1132DF01C480278D2B21F2082431100781EC0B250
S1132E00C206D20E0A43100016490870D206D20E2A
S1132E10521C009854432100FEF70FFA0100124897
S1132E200278D2B21F2082430800000AC006C00EF6
S1132E3010430D4A10700D480170054800780C21AC
S1132E40014303480170F3BDFEE7000034800440F1
S1132E5003A0064031C3000004800440FFFFFFF3D9
S1132E600BA006400AA0064000A0064001A00640B0
S1132E7000B502791206FCD5C17100BD0000000046
S1132E80070000000E000000150000001C000000F8
S1132E90230000002B000000320000003900000075
S1132EA040000000470000004E00000055000000F4
S1132EB05C000000630000006A0000007100000074
S1132EC07800000080000000870000008E000000F1
S1132ED0950000009C000000A3000000AA00000070
S1132EE0B1000000B8000000BF000000C6000000F0
S1132EF0CE000000D5000000DC000000E30000006C
S1132F00EA000000F1000000F8000000FF000000EB
S1132F10060100000D010000140100001B01000067
S1132F20230100002A0100003101000038010000E3
S1132F303F010000460100004D0100005401000063
S1132F405B010000620100006901000071010000E2
S1132F50780100007F010000860100008D0100005F
S1132F60940100009B010000A2010000A9010000DF
S1132F70B0010000B7010000BE010000C60100005E
S1132F80CD010000D4010000DB010000E2010000DB
S1132F90E9010000F0010000F7010000FE0100005B
S1132FA0050200000C020000130200001B020000D6
S1132FB02202000029020000300200003702000053
S1132FC03E020000450200004C02000053020000D3
S1132FD05A02000061020000690200007002000051
S1132FE0770200007E020000850200008C020000CF
S1132FF0930200009A020000A1020000A80200004F
S1133000AF020000B6020000BE020000C5020000CC
S1133010CC020000D3020000DA020000E10200004A
S1133020E8020000EF020000F6020000FD020000CA
S1133030040300000C030000130300001A03000043
S113304021030000280300002F03000036030000C2
S11330503D030000440300004B0300005203000042
S11330605903000061030000680300006F030000BF
S1133070760300007D030000840300007D0200004D
S1133080090A0001020304050607080B0C0D0E0FC4
S113309001000000A0F7FF1FC0F7FF1FE0F7FF1FAC
S11330A000F8FF1F20F8FF1F40F8FF1F60F8FF1F04
S11330B080F8FF1FA0F8FF1FC0F8FF1FE0F8FF1FF4
S11330C000F9FF1F20F9FF1F40F9FF1F60F9FF1FE0
S11330D080F9FF1F243900006037000074370000B6
S11330E0883700000000000009024300020100C00C
S11330F03209040000010202010105240010010547
S113310024010001042402000524060001070581AE
S11331100320000209040100020A000001070582DD
S1133120022000000705030220000000466C6173C2
S1133130682073697A653A202038204B42207072E7
S11331406F6772616D20666C6173682C20302E325B
S113315035204B422070726F74656374696F6E2002
S1133160726567696F6E0000466C617368207369ED
S11331707A653A20203136204B422070726F677294
S1133180616D20666C6173682C20302E35204B42B3
S11331902070726F74656374696F6E2072656769FD
S11331A06F6E0900466C6173682073697A653A2012
S11331B0203332204B422070726F6772616D20663B
S11331C06C6173682C2031204B422070726F7465DF
S11331D06374696F6E20726567696F6E0900000021
S11331E0466C6173682073697A653A20203634200E
S11331F04B422070726F6772616D20666C617368F8
S11332002C2032204B422070726F74656374696F96
S11332106E20726567696F6E09000000466C617309
S1133220682073697A653A2020313238204B422075
S113323070726F6772616D20666C6173682C2034E4
S1133240204B422070726F74656374696F6E2072D4
S11332506567696F6E090000466C61736820736965
S11332607A653A2020323536204B422070726F67DF
S113327072616D20666C6173682C2034204B42208F
S113328070726F74656374696F6E20726567696FBD
S11332906E0900000A4552522120496E76616C691C
S11332A064204952512076616C7565207061737396
S11332B0656420746F20656E61626C65206972714B
S11332C02066756E6374696F6E210A000A0D5B6F68
S11332D075745352535D57616B65757020626974E0
S11332E0207365742066726F6D206C6F7720706F29
S11332F0776572206D6F6465200000000A2A2A2A0F
S11333002A64656661756C745F69737220656E7496
S113331065726564206F6E20766563746F72202514
S1133320642A2A2A2A2A0D0A0A0000000A0D556E68
S11333307265636F676E697A6564204B696E657444
S11333406973207375622D66616D696C792064659B
S1133350766963652E0A0D000A0D556E7265636FFA
S1133360676E697A6564204B696E65746973207051
S113337061636B61676520636F64652E2020202084
S1133380202000000A0D556E7265636F676E697ABE
S11333906564204B696E657469732066616D696C40
S11333A079206174747269627574652E0A0D000067
S11333B05B6F75745352535D52434D5F5352533098
S11333C0206973205A45524F2020203D2025233068
S11333D03258200D0A0D00005B6F75745352535D13
S11333E052434D5F53525331206973205A45524F13
S11333F02020203D202523303258200D0A0D0000C6
S11334000A0D556E7265636F676E697A6564204B49
S1133410696E657469732066616D696C7920646591
S1133420766963652E0A0D000A0D4C6F7720506F84
S1133430776572204C696E65207769746820436FE4
S113344072746578204D302B0A0D0A0D00000000BF
S113345010B5074979441831064C7C44163404E00D
S1133460081D0A68891888470100A142F8D110BDD7
S1133470500000005C000000476F20696E746F20EC
S1133480616363656C5F64656D6F202078795F6D3F
S11334906167203E203230200D0A00000A0D53746B
S11334A06F70204D6F64652041636B6E6F776C6540
S11334B0646765204572726F72205265736574008B
S11334C023D7FFFF5C04000000F6FF1F000000008C
S11334D00A0D4C6F7373206F662045787465726EA5
S11334E0616C20436C6F636B2052657365740000DC
S11334F0455252212120556E646566696E656420CB
S1133500666C6173682073697A650A0D00000000B7
S113351049326320577269746520206572726F7234
S113352021204E4F2041434B0A0000000A0D436FF7
S11335307265204C6F636B7570204576656E7420E0
S113354052657365740000000A0D4C6F7373206F2D
S113355066204C6F636B20696E20504C4C20526582
S1133560736574000A0D4C6F772D766F6C74616708
S11335706520446574656374205265736574000046
S11335800A0D556E7265636F676E697A65642053C0
S113359052414D2053697A652E0A0D0000F00BF854
S11335A0002801D0FFF754FF0020C046C046FEF7B4
S11335B0B1F800F002F80120704780B500F002F87D
S11335C001BD00000746384600F002F8FBE70000A2
S11335D080B5C046C046024A11001820ABBEFBE7C6
S11335E02600020042756677656E7875655B315D0D
S11335F03D3D253032780D0A0000000042756677A3
S1133600656E7875655B25645D3D253032780D0AFD
S1133610000000000A0D45787465726E616C2050DC
S1133620696E205265736574000000000A0D5761CD
S1133630746368646F6728434F502920526573652B
S11336407400000080B5034801680348FDF7CAFD13
S113365001BD000004ED00E0FC3200001520001064
S11336600CE0132000966050AF50040305010000E5
S11336700A0D536F667477617265205265736574C1
S1133680000000000A0D506F7765722D6F6E205296
S113369065736574000000005352414D2053697AEC
S11336A0653A20302E35204B420A0D005352414DCD
S11336B02053697A653A202031204B420A0D0000DC
S11336C05352414D2053697A653A202032204B42AF
S11336D00A0D00005352414D2053697A653A202067
S11336E034204B420A0D00005352414D2053697A55
S11336F0653A202038204B420A0D00005352414DB8
S11337002053697A653A20203136204B420A0D0055
S11337105352414D2053697A653A20203332204B6D
S1133720420A0D005352414D2053697A653A2020D4
S11337303634204B420A0D0053696C69636F6E2066
S11337407265762025640A0D200000001201100124
S113375002000020A2150FA50000010203010000D1
S11337601403460072006500650073006300610085
S11337706C00650012035500530042002D005500F3
S1133780410052005400000012035400450053004D
S113379054005F0031002E003000000080B50100AD
S11337A0C9B20248FFF764FB01BD000000A0064057
S11337B053746570436F756E743D25640D0A000083
S11337C04275665B315D3D3D253032780D0A00005F
S11337D04275665B25645D3D253032780D0A000034
S11337E00A0D4D444D2D41502052657365740000FF
S11337F0313670696E202020202020200000000037
S1133800323470696E202020202020200000000027
S113381031303070696E202020202020000000000C
S11338202020202020202020202020202020202094
S11338304C4C53206578697420000000564C4C535E
S11338403020657869742000564C4C5331206578DB
S113385069742000564C4C5332206578697400001A
S1133860564C4C53332065786974200033327069A8
S11338706E20202020202000343870696E20202003
S113388020202000363470696E2020202020200063
S1133890383070696E20202020202000C046C046A9
S11338A0C046C046FFF77AFE17200501000000005D
S11338B0152006018000000012200601000000000F
S11338C018200001C0000000783D25640D0A0000A6
S11338D0793D25640D0A00007A3D25640D0A000037
S11338E006200001000000000A0D0A0D000000007F
S11338F00A0D4B4C300000000A0D4B4C3100000007
S11339000A0D4B4C320000000A0D4B4C33000000F2
S11339100A0D4B4C340000001530000C0630120622
S10B3920061000010403090470
S903389D27
